:1000000008308A0060280000FF00030E8301A10071
:100010000A08A0008A010408A2007708A300780853
:10002000A4007908A5007A08A6007B08A70083131E
:1000300083128C308400801E1F288C1A32282208DC
:1000400084002308F7002408F8002508F900260892
:10005000FA002708FB0020088A00210E8300FF0E0B
:100060007F0E09008A110A12E6290A108A100A1165
:10007000820728340C34013406340A108A100A111D
:1000800082075434523441344E344734203454348B
:1000900048344134493420345434423420342034F8
:1000A00020342034203420342034203420342034B0
:1000B0002034203400340A108A100A1182073134A7
:1000C0002534633432342534633433342534633493
:1000D0003434253463342034203420342034203424
:1000E0002034203420342034203420342034203470
:1000F00000340A108A100A11820749346E347434AD
:1001000065347234723475347034743469346E34D6
:1001100067342034203420342034203420342034F8
:10012000203400340A108A100A1182074E346534D4
:100130007734203469346E3462346F347834203448
:10014000203420342034203420342034203420340F
:100150002034203420342034203400340A108A1013
:100160000A1182072534633425346334253463341B
:1001700020342034203420342034203420342034DF
:100180002034203420342034203400340A108A10E3
:100190000A118207253463342534633425346334EB
:1001A000253463342534633425346334253463348F
:1001B000203420342034203420342034203420349F
:1001C000203420342034203400340A108A100A11DC
:1001D000EC3E03188A0A82002534633425346334E4
:1001E000253463342534633425346334253463344F
:1001F0002534633420342034203420342034203417
:100200002034203420342034203400340A148A105E
:100210000A1182072534633425346334253463346A
:10022000253463342534633420342034203420349E
:10023000203420342034203420342034203420341E
:10024000203400340A148A100A11820741345434CD
:100250002B3443344D34473444343D3431342C341E
:1002600034340D340A3400340A148A100A11820717
:10027000413454342B3443344D34473453343D34B7
:100280002234303431343634333439343034393440
:10029000313435343634313422340D340A340034B8
:1002A0000A148A100A118207443465346C346534A8
:1002B00074346534203453347534633463346534B2
:1002C00073347334663475346C346C34793421345B
:1002D00000340A148A100A11820749342034413448
:1002E0006D342034523465346134643479342134CB
:1002F0000D340A3450346C346534613473346534ED
:100300002034473469347634653420344D346534D0
:1003100020344F34723464346534723421342034E0
:1003200000340A148A100A11820745347234723478
:100330006F34723400340A148A100A118207493467
:10034000203441346D34203442347534733479347C
:10035000203400340A148A100A11820749342034E8
:1003600041346D34203442347534733479342E344E
:10037000203400340A148A100A11820749342034C8
:1003800041346D34203442347534733479342E342E
:100390002E34203400340A148A100A11820749349A
:1003A000203441346D34203442347534733479341C
:1003B0002E342E342E34203400340A148A100A11BC
:1003C0008207413454340D340A3400348C1EE6293B
:1003D0001A08A80028082B3C031DF0292808A900AA
:1003E0002808433C031DF6292808AA0028084D3C8C
:1003F000031DFC292808AB002808543C031D022AD1
:100400002808AC0029082B3C031D142A2A08433C69
:10041000031D142A2B084D3C031D142A2C08543CA0
:10042000031D142A0130AD00A80803191E2A310843
:10043000B10A103E84008317280880003108583C18
:100440000318232AB1013108053C03182C2AAD08F2
:10045000031D2C2A0130B2008C128A110A121F28A7
:100460000317EA0103133810380883168700831234
:100470000714B810380883168700831287143811C0
:1004800038088316870083120715B81138088316B9
:100490008700831287153812380883168700831265
:1004A0000716B8123808831687008312871683163A
:1004B0000810831208148316091089100911FF30DF
:1004C000831289000317EA016A08033C031C702A9F
:1004D00034306A078400831330308000EA0A642ACB
:1004E000031300349F308400831700080319862A01
:1004F0000130F800F701F70B7B2AF80B7A2A4A3013
:10050000F700F70B812A842A800B782A003483169F
:1005100003172618912A831203130812942A8316AC
:100520000317831203130816831608120317A6185D
:100530009F2A831203138812A22A83160317831299
:10054000031388168316881203172619AD2A8312FF
:1005500003130813B02A8316031783120313081713
:10056000831608130317A619BB2A831203138813D3
:10057000BE2A831603178312031388178316881362
:1005800000008312881583168811C62A83128811E9
:10059000831688118312003483160317A7010313EF
:1005A000081600308312081A013083160317A704B7
:1005B0000313881600308312881A0130F7000310E5
:1005C000F70D770883160317A704031308170030E5
:1005D0008312081B0130F700F70DF70DFC30F7050B
:1005E000770883160317A7040313881700308312B4
:1005F000881B0130F700F70DF70DF70DF830F70500
:10060000770883160317A7042708F800831203133B
:100610000034881083168810081688160817881763
:10062000831208158316081100008312881583169B
:10063000881100008312CC22780883160317A600C5
:100640008312031388118316881100008312881502
:100650008316881100008312CC22780883160317B2
:10066000A5008312031388118316881108128812BB
:10067000081388130317260EF700F030F7057708E4
:100680002504F8007808A500A51F482B03130C2BA0
:10069000A308031D512B831203138810542B8316B8
:1006A0000317831203138814831688100000831223
:1006B000081183160811000083128811831688110F
:1006C0000317240EA5000F30A5052508A6008312E8
:1006D000031387228316031724080F39A500A600E9
:1006E000831203138722003483160317200B7A2BFF
:1006F000A1018E2B2008023C031D812B4030A1005C
:100700008E2B2008033C031D882B1430A1008E2B58
:100710002008043C031D8E2B5430A10001301F0221
:10072000A10721088038A200A3012208A400831297
:10073000031309230034831603171E080C3A83128F
:1007400003130319AA2B063A0319BA2B023A031909
:10075000C42BCD2B83160317A3010130A4008312F1
:10076000031309230230831603179F008312031318
:100770007222D72B0130831603179F000230A0008E
:10078000831203137423D72B83160317A30110308E
:10079000A400831203130923D72B013083160317F8
:1007A000A3001E08A400831203130923D72B0034CF
:1007B000831603179501140815020318E82B6430FB
:1007C0009F0083120313722283160317950ADB2BF3
:1007D0008312031300340C30831603179E00831218
:1007E00003139B2301308316031794008312031312
:1007F000D8230034FF308316950081138C16C03047
:1008000083128B048316051083120514302283167D
:10081000081288120813881388118810081183128F
:10082000881083168810831208118316081183120A
:100830008811831688110F3003179F00831203134A
:10084000722201300317EA006A08033C031C382CAB
:1008500003308316A6008312031387220530831604
:1008600003179F008312031372220317EA0A242C32
:1008700002308316A6008312031387220317EA01AE
:100880006A08033C031C552C6A0803133520031720
:10089000EB008316A30183126B088316A400831256
:1008A000031309230317EA0A402C0313EB238A15C9
:1008B0000A1290280130831603179F00A0008312AC
:1008C000031374230317EA016A0803139B21031718
:1008D000EA0AF70083169E00831203139B230A3053
:1008E00003176A02031D642C1E30831694008312C2
:1008F0000313D8230130831603179F00A00083122F
:10090000031374230317EA016A080313AA210317C8
:10091000EA0AF70083169E00831203139B230B3011
:1009200003176A02031D842C1E3083169400831261
:100930000313D8230130831603179F00A0008312EE
:10094000031374230317EA016A080313BA21031778
:10095000EA0AF70083169E00831203139B230C30D0
:1009600003176A02031DA42C14308316940083120B
:100970000313D8230130831603179F00A0008312AE
:10098000031374230317EA016A080313CB21031727
:10099000EA0AF70083169E00831203139B230D308F
:1009A00003176A02031DC42C1430831694008312AB
:1009B0000313D82330228A150A12932883160317AB
:1009C00090011008593C031CEC2C103010078400D7
:1009D00083178001900AE12C83120313AC012C08C9
:1009E000AB00AA00A900AD01B101B2018316031743
:1009F0009001100883120313AF00AE000034EB2304
:100A00000130831603179F00A00083120313742381
:100A10000317100883169E00831203139B230317EA
:100A2000110883169E00831203139B2303171208D9
:100A300083169E00831203139B2303171308831648
:100A40009E00831203139B230317140883169E0032
:100A5000831203139B230317150883169E0083122A
:100A600003139B230317160883169E008312031398
:100A70009B230317170883169E00831203139B23DF
:100A80000317180883169E00831203139B23031772
:100A9000190883169E00831203139B2303171A0859
:100AA00083169E00831203139B2303171B088316D0
:100AB0009E00831203139B2303171C0883169E00BA
:100AC000831203139B2303171D0883169E008312B2
:100AD00003139B2303171E0883169E008312031320
:100AE0009B2303171F0883169E00831203139B2367
:100AF0000A3083160317940083120313D823DE24CD
:100B00000034831603179001100883120313DD21AC
:100B100083160317900AF700831203130C1E8E2D01
:100B200099000430831603171002031D842D03302F
:100B3000940083120313D823FF2430228316031753
:100B40009001100883120313222183160317900AC1
:100B5000F700831203130C1EAB2D99000D30831682
:100B600003171002031DA12D0530940083120313F7
:100B7000D823FF24EB2330228A150A1296288316E5
:100B800003179101110883120313342183160317ED
:100B9000910AF700831203130C1ECC2D9900173015
:100BA000831603171102031DC22D05309400831212
:100BB0000313D823831603171008013A8312031373
:100BC0000319E92D033A0319022E013A03190F2ED6
:100BD000282E83160317910111088312031369212C
:100BE00083160317910AF700831203130C1EF62DC8
:100BF00099002330831603171102031DEC2D831275
:100C00000313282E4F300C1E032E99004B300C1E60
:100C1000072E990020300C1E0B2E9900282E8316CB
:100C200003179101110883120313912183160317EF
:100C3000910AF700831203130C1E1C2E9900053035
:100C4000831603171102031D122E83120313282E7D
:100C5000053083160317940083120313D8231A3028
:100C60000C1E302E99000530831603179400831252
:100C70000313D8238A150A12A828381438088316B3
:100C8000870083120718472E2330B400492E3030D6
:100C9000B4008A150A12BD28B814380883168700D4
:100CA00083128718562E2330B500582E3030B500E9
:100CB0008A150A12C028381538088316870083124F
:100CC0000719652E2330B600672E3030B6008A151E
:100CD0000A12C328B81538088316870083128719AB
:100CE000742E2330B700762E3030B7008A150A12E2
:100CF000C6280317EA016A08031322210317EA0A28
:100D0000F70003130C1E822E99000D3003176A02A0
:100D1000031D7B2E05308316940083120313D82302
:100D20008A150A12592A83160317100BE52E910112
:100D3000110883120313342183160317910AF70055
:100D4000831203130C1EA22E99001730831603176B
:100D50001102031D982E0530940083120313D8232B
:100D600031300C1EB12E990034080C1EB52E99009E
:100D700032300C1EB92E990035080C1EBD2E99007C
:100D800033300C1EC12E990036080C1EC52E99005A
:100D900034300C1EC92E990037080C1ECD2E990038
:100DA000053083160317940083120313D8231A30D7
:100DB0000C1ED82E99000530831603179400831259
:100DC0000313D823282F831603171008023C031D92
:100DD0002A2F91011108831203133421831603175C
:100DE000910AF700831203130C1EF42E990017309A
:100DF000831603171102031DEA2E05309400831297
:100E00000313D823831603179101110883120313C8
:100E1000502183160317910AF700831203130C1E47
:100E20000F2F99001430831603171102031D052F8D
:100E30000530940083120313D8231A300C1E1E2F82
:100E40009900053083160317940083120313D823E7
:100E5000831603178312031300340317EA010313E5
:100E6000381038088316870083120710B810380826
:100E7000831687008312871038113808831687007D
:100E800083120711B811380883168700831287115F
:100E9000381238088316870083120712B8123808F0
:100EA0008316870083128712831608108312081096
:100EB0008316091089100911831289010317EA01A9
:100EC0006A08033C031C6C2F34306A0784008313C8
:100ED00023308000EA0A602F03138A150A12972B29
:100EE00001308316031793001208313A831203135B
:100EF0000319842F033A0319942F013A0319A42FDD
:100F0000073A0319B42FC42F381038088316870006
:100F1000831207102330B4008316031713089400BC
:100F200083120313D823C52FB810380883168700FF
:100F3000831287102330B50083160317130894001B
:100F400083120313D823C52F38113808831687005E
:100F5000831207112330B600831603171308940079
:100F600083120313D823C52FB811380883168700BE
:100F7000831287112330B7008316031713089400D8
:100F800083120313D823C52FC52F8A150A12A22D49
:1010000001308316031793001208313A8312031339
:1010100003191428033A03192628013A031938281A
:10102000073A03194A285C283810380883168700C5
:10103000831207143030B40083160317130894008A
:101040008A1183120313D8238A155D28B810380833
:1010500083168700831287143030B5008316031778
:10106000130894008A1183120313D8238A155D286C
:101070003811380883168700831207153030B60000
:1010800083160317130894008A1183120313D823BD
:101090008A155D28B81138088316870083128715D2
:1010A0003030B70083160317130894008A11831297
:1010B0000313D8238A155D285D288A150A12852E08
:1010C000840183131F30830583160317871119309A
:1010D00003139900A630980090308312980083166D
:1010E00003170908C039890003131F129F1200302B
:1010F0000317880083128701880189010313A8015F
:10110000A901AA01AB01AC01AD01AE01AF01B00173
:10111000B101B2010130B300FF30B8008A11FA2BDF
:101120008A158A115A2C8A158A11812D8A151E302A
:101130008316031794008A1183120313D8238A1588
:1011400001308316031790008A1183120313BF2DF9
:101150008A1505308316031794008A11831203132E
:10116000D8238A158A11FF248A158A1130228A15FC
:101170008A11EB238A158A113D2E8A158A114C2E6D
:101180008A158A115B2E8A158A116A2E8A150130FA
:10119000831603179F00A0008A1183120313742380
:1011A0008A1583160317900110088A1183120313FE
:1011B0003D208A1583160317900AF7009E008A11B6
:1011C000831203139B238A15193083160317100209
:1011D000031DD42801309F000230A0008A11831221
:1011E000031374238A153130831603179E008A1166
:1011F000831203139B238A153408831603179E005A
:101200008A11831203139B238A1532308316031726
:101210009E008A11831203139B238A1535088316B7
:1012200003179E008A11831203139B238A15333000
:10123000831603179E008A11831203139B238A15BA
:101240003608831603179E008A11831203139B230B
:101250008A153430831603179E008A1183120313F4
:101260009B238A153708831603179E008A11831261
:1012700003139B238A150C30831603179000100864
:101280008A11831203135B208A1583160317900AB1
:10129000F7009E008A11831203139B238A151930CD
:1012A000831603171002031D3F2983120313320B09
:1012B0008B290130831603179F000230A0008A118A
:1012C0008312031374238A158316031790011008E1
:1012D0008A118312031379208A1583160317900A43
:1012E000F7009E008A11831203139B238A15143082
:1012F000831603171002031D67290A3094008A1110
:1013000083120313D8238A158A11FF248A158A11A0
:10131000EB238A15AC2E2D0BAC2E01308316031750
:101320009F000230A0008A118312031374238A15D0
:1013300083160317900110088A1183120313922059
:101340008A1583160317900AF7009E008A118312EC
:1013500003139B238A151730831603171002031DEE
:101360009B290A3094008A1183120313D8238A150B
:101370003230AF002F084F3C031C9D2E10302F073A
:10138000840083170008783C0319CE2910302F07FA
:10139000840083170008583C031D762A01302F076C
:1013A000103E8400831700086F3C0319E0290130C8
:1013B0002F07103E8400831700084F3C031D762A38
:1013C00002302F07103E840083170008613C031988
:1013D000F22902302F07103E840083170008413C99
:1013E000031D762A8A11EB238A1501308316031711
:1013F0009F00A0008A118312031374238A151030F2
:101400002F0784008317000883160317900001300C
:10141000831203132F07103E8400831700088316DE
:10142000031792000230831203132F07103E84002B
:101430008317000883160317940010089E008A1172
:10144000831203139B238A158316031712089E0029
:101450008A11831203139B238A158316031714081A
:101460009E008A11831203139B238A15063083166C
:101470000317950015088A1183120313AE208A15ED
:1014800083160317950AF7009E008A11831203132F
:101490009B238A151330831603171502031D3A2A5E
:1014A0000A3094008A1183120313D8238A158A11F3
:1014B000792E8A1505308316031794008A1183123A
:1014C0000313D8238A158A11FF248A158A11EB2366
:1014D0008A158A11DE248A150230831603179000BC
:1014E0008A118312031393268A159B2E10302F071F
:1014F000840083170008623C0319862A10302F07E6
:10150000840083170008423C031DA62B01302F07DF
:10151000103E840083170008613C0319982A0130AB
:101520002F07103E840083170008413C031DA62BA3
:1015300002302F07103E840083170008743C031903
:10154000AA2A02302F07103E840083170008543C5B
:10155000031DA62B03302F07103E840083170008BD
:10156000683C0319BC2A03302F07103E8400831700
:101570000008483C031DA62B04302F07103E8400B2
:1015800083170008653C0319CE2A04302F07103E4C
:10159000840083170008453C031DA62B05302F0748
:1015A000103E840083170008743C0319E02A0530BC
:1015B0002F07103E840083170008543C031DA62B00
:1015C0008A11EB238A150130831603179F00A000B0
:1015D0008A118312031374238A1510302F07840095
:1015E000831700088316031790000130831203133A
:1015F0002F07103E840083170008831603179200FC
:101600000230831203132F07103E84008317000853
:101610008316031794000330831203132F07103E21
:101620008400831700088316031796000430831282
:1016300003132F07103E8400831700088316031737
:1016400098000530831203132F07103E8400831780
:101650000008831603179A000630831203132F071E
:10166000103E840083170008831603179C0010089F
:101670009E008A11831203139B238A158316031776
:1016800012089E008A11831203139B238A15831666
:10169000031714089E008A11831203139B238A15D3
:1016A0008316031716089E008A11831203139B23C7
:1016B0008A158316031718089E008A1183120313D4
:1016C0009B238A15831603171A089E008A1183121A
:1016D00003139B238A15831603171C089E008A1187
:1016E000831203139B238A150E30831603179D0064
:1016F0001D088A1183120313C6208A158316031747
:101700009D0AF7009E008A11831203139B238A15FA
:101710001A30831603171D02031D782B0A3094001C
:101720008A1183120313D8238A158A112D2F8A1543
:101730008A11DE248A1501308316031790008A115E
:101740008312031393268A159D2E9B2E10302F078C
:10175000840083170008743C0319B62B10302F0740
:10176000840083170008543C031DD62C01302F073A
:10177000103E840083170008613C0319C82B013018
:101780002F07103E840083170008413C031DD62C10
:1017900002302F07103E840083170008743C0319A1
:1017A000DA2B02302F07103E840083170008543CC8
:1017B000031DD62C03302F07103E8400831700082A
:1017C000683C0319EC2B03302F07103E840083176D
:1017D0000008483C031DD62C04302F07103E84001F
:1017E00083170008653C0319FE2B04302F07103EB9
:1017F000840083170008453C031DD62C05302F07B5
:10180000103E840083170008743C0319102C053027
:101810002F07103E840083170008543C031DD62C6C
:101820008A11EB238A150130831603179F00A0004D
:101830008A118312031374238A1510302F07840032
:1018400083170008831603179000013083120313D7
:101850002F07103E84008317000883160317920099
:101860000230831203132F07103E840083170008F1
:101870008316031794000330831203132F07103EBF
:101880008400831700088316031796000430831220
:1018900003132F07103E84008317000883160317D5
:1018A00098000530831203132F07103E840083171E
:1018B0000008831603179A000630831203132F07BC
:1018C000103E840083170008831603179C0010083D
:1018D0009E008A11831203139B238A158316031714
:1018E00012089E008A11831203139B238A15831604
:1018F000031714089E008A11831203139B238A1571
:101900008316031716089E008A11831203139B2364
:101910008A158316031718089E008A118312031371
:101920009B238A15831603171A089E008A118312B7
:1019300003139B238A15831603171C089E008A1124
:10194000831203139B238A150E30831603179D0001
:101950001D088A1183120313E5208A1583160317C5
:101960009D0AF7009E008A11831203139B238A1598
:101970001930831603171D02031DA82C0A3094008A
:101980008A1183120313D8238A158A1130228A15EB
:101990008A11DE248A1501308316031790008A11FC
:1019A0008312031393268A159D2E9B2E10302F072A
:1019B000840083170008623C0319E62C10302F07BF
:1019C000840083170008423C031DBA2D01302F0705
:1019D000103E840083170008613C0319F82C013085
:1019E0002F07103E840083170008413C031DBA2DC9
:1019F00002302F07103E840083170008743C03193F
:101A00000A2D02302F07103E840083170008543C33
:101A1000031DBA2D0130831603179F00A0008A1101
:101A20008312031374238A1510302F078400831741
:101A300000088316031790000130831203132F0749
:101A4000103E8400831700088316031792000230AB
:101A5000831203132F07103E840083170008831698
:101A6000031794000330831203132F07103E8400E2
:101A7000831700088316031796000430831203139C
:101A80002F07103E84008317000883160317980061
:101A900010089E008A11831203139B238A15831654
:101AA000031712089E008A11831203139B238A15C1
:101AB0008316031714089E008A11831203139B23B5
:101AC0008A158316031716089E008A1183120313C2
:101AD0009B238A158316031718089E008A11831208
:101AE00003139B238A150A308316031799001908DC
:101AF0008A118312031306218A1583160317990A84
:101B0000F7009E008A11831203139B238A15173056
:101B1000831603171902031D772D0A3094008A11CA
:101B200083120313D8238A1503302F07103E840035
:101B30008317000883160317910092008A118312FD
:101B40000313702F8A150A308316031794008A1125
:101B500083120313D8238A158A11DE248A150130D3
:101B60008316031790008A118312031393268A1594
:101B70009D2E9B2E10302F07840083170008743C85
:101B80000319CA2D10302F07840083170008543C16
:101B9000031D9B2E01302F07103E84008317000881
:101BA000613C0319DC2D01302F07103E84008317A0
:101BB0000008413C031D9B2E02302F07103E84007D
:101BC00083170008743C0319EE2D02302F07103ED6
:101BD000840083170008543C031D9B2E013083169C
:101BE00003179F00A0008A118312031374238A1520
:101BF00010302F0784008317000883160317900006
:101C00000130831203132F07103E8400831700084E
:101C10008316031792000230831203132F07103E1E
:101C2000840083170008831603179400033083127F
:101C300003132F07103E8400831700088316031731
:101C400096000430831203132F07103E840083177D
:101C5000000883160317980010089E008A1183124B
:101C600003139B238A158316031712089E008A11FB
:101C7000831203139B238A158316031714089E00EF
:101C80008A11831203139B238A15831603171608E0
:101C90009E008A11831203139B238A158316031750
:101CA00018089E008A11831203139B238A150A3099
:101CB00083160317990019088A118312031306214A
:101CC0008A1583160317990AF7009E008A1183125A
:101CD00003139B238A151730831603171902031D5C
:101CE0005B2E0A3094008A1183120313D8238A15BD
:101CF00003302F07103E8400831700088316031754
:101D0000910092008312031300280A3083160317F0
:101D100094008A1183120313D8238A158A11DE24B2
:101D20008A1501308316031790008A11831203135A
:101D300093268A159D2EAF0ABA29053083160317FC
:101D400094008A1183120313D8238A158A11FF2461
:0C1D50008A158A11EB238A15C72863004E
:04400E00E22FFF3F5F
:00000001FF
;PIC16F887
;CRC=6A2C  CREATED="26-Aug-15 20:34"
